:020000040800F2
:10000000002000209D210008ED1B0008EF1B0008C8
:10001000F11B0008F31B0008F51B0008000000009E
:10002000000000000000000000000000F71B0008B6
:10003000F91B000800000000FB1B0008FD1B000866
:10004000E5210008E5210008E5210008E521000878
:10005000E5210008E5210008E5210008E521000868
:10006000E5210008E5210008E5210008E521000858
:10007000E5210008E5210008E5210008E521000848
:10008000E5210008E5210008E52100080000000046
:10009000000000000000000000000000E521000852
:1000A000E5210008E5210008E5210008E521000818
:1000B000E5210008E5210008E5210008E521000808
:1000C000E52100080000000000000000E521000814
:1000D000E5210008011C0008E5210008E5210008D1
:1000E000E5210008E5210008E521000800000000E6
:1000F0000000000000000000000000000000000000
:1001000000000000000000000000000000000000EF
:100110000000000000000000E5210008E5210008C3
:1001200000000000000000000000000000000000CF
:1001300000000000000000000000000000000000BF
:1001400000000000000000000000000000000000AF
:10015000000000000000000000000000000000009F
:10016000000000000000000000000000000000008F
:10017000000000000000000000000000000000007F
:10018000000000000000000000000000000000006F
:10019000000000000000000000000000000000005F
:1001A000000000000000000000000000000000004F
:1001B000000000000000000000000000000000003F
:1001C0000000000000000000000000005FF808F1DF
:1001D00010B5054C237833B9044B13B10448AFF381
:1001E00000800123237010BD880000200000000063
:1001F000E82A000808B5034B1BB103490348AFF3D5
:10020000008008BD000000008C000020E82A0008E3
:1002100010F8012B11F8013B012A28BF9A42F7D0B0
:10022000D01A7047034613F8012B002AFBD1181A85
:1002300001387047D0400B1CD1409C46203AD34037
:10024000184352426346934018437047704700007A
:1002500010B54FF0FF320024044BDA601C61DA6005
:10026000DC60FFF7F3FF204610BD00BF0010024026
:1002700038B50E4B054618784FF47A73B3FBF0F39C
:100280000B4A1068B0FBF3F000F09AF8044658B936
:100290000F2D09D8024629464FF0FF3000F04EF8E6
:1002A000044B20461D6038BD012038BD00000020F1
:1002B0001C0000200400002008B5032000F02CF8EA
:1002C0000020FFF7D5FF01F02BFC002008BD000047
:1002D000034A044B11681B780B441360704700BF3E
:1002E000D000002000000020014B1868704700BFBC
:1002F000D000002038B50446FFF7F6FF0546631C22
:100300001EBF044B1B78E418FFF7EEFF401B84422E
:10031000FAD838BD00000020074A0002D36800F474
:10032000E06023F4E0631B041B0C43F0BF6343F461
:1003300000330343D360704700ED00E0174B30B546
:10034000DC68C4F30224C4F10703251D042B28BF75
:100350000423062D4FF0010598BF002405FA03F38E
:1003600003F1FF3388BF033C1940A14005FA04F4B0
:10037000013C2240002842EA01024FEA0212A9BFD2
:1003800000F16040064BD2B200F56140BBBF00F007
:100390000F00D2B280F800231A5430BD00ED00E007
:1003A00014ED00E0002808DB0123420900F01F00E3
:1003B00003FA00F0014B43F82200704700E100E02F
:1003C0000138B0F1807F0AD2F021064B064A58600E
:1003D00082F823100020072298601A6070470120DD
:1003E000704700BF10E000E000ED00E090F8213021
:1003F000022B06D004238363002380F820300120E1
:1004000070470368C16B1A6822F00E021A601A68FE
:1004100022F001021A600122036C02FA03F34B601E
:10042000002380F8212080F8203018467047000013
:1004300090F8213010B5022B03D0042383630120F0
:1004400010BD03681A6822F00E021A601A6822F0C2
:1004500001021A60184A93421FD0143293421ED0F0
:10046000143293421DD0143293421DD01432934261
:100470001DD0143293420CBF4FF480134FF08073A1
:100480000E4A00245360012380F82130436B80F82A
:1004900020407BB19847204610BD0123F0E7102390
:1004A000EEE74FF48073EBE74FF48053E8E74FF447
:1004B0008033E5E7184610BD080002400000024006
:1004C000806B7047114AD36813F0100305D01049B0
:1004D000CB6943F00203CB611023D268500706D5E5
:1004E0000B4943F00403CA6942F00102CA61074A9A
:1004F000D169C90708D50648C16941F00401C16145
:10050000D16921F00101D161D36070470020024020
:10051000D8000020064B186910F0800007D0054A6B
:100520005A6002F188325A601869C0F3C0107047EF
:100530000020024023016745034A0020136943F06D
:1005400080031361704700BF00200240014BD8694F
:10055000704700BFD8000020F8B50646FFF7C4FE7C
:10056000114C07462546E368D80712D4E36899067C
:1005700044BF2023E360EB68DA0606D4EB69DB07AF
:1005800003D4E86810F0040002D0FFF79BFF0120BD
:10059000F8BD731CE7D00EB90320F8BDFFF7A4FE29
:1005A000C01B8642DFD2F7E7002002402DE9F84F5A
:1005B0001F4C9946237E0546012B0F46904633D0AB
:1005C00001234CF250302376FFF7C6FF40BB012DCC
:1005D00003D0022D0CBF022504250026B246DFF809
:1005E00054B0320140464946FFF724FEC4F81CA02F
:1005F000DBF8103080B243F00103CBF8103027F85D
:1006000016004CF25030FFF7A7FFDBF8103023F054
:100610000103CBF8103018B90136F3B29D42E0D88F
:1006200000232376BDE8F88F0220BDE8F88F00BFD5
:10063000D8000020002002400022064BDA61064B61
:100640001A6942F004021A611A6942F040021A6102
:10065000704700BFD8000020002002400022064B57
:10066000DA61064B1A6942F002021A6158611A698E
:1006700042F040021A617047D8000020002002407A
:100680002DE9F041234D07462B7E8846012B3DD0B6
:10069000012403682C76022B4CF2503013D1FFF763
:1006A0005BFF20B1012000232B76BDE8F081FFF72E
:1006B000C3FF4CF25030FFF74FFF174A136923F086
:1006C00004031361EFE7FFF747FF0028EAD14FF07B
:1006D000FF33C8F800302046BE680F4CFA68BB688C
:1006E00003EB82239E42DED23046FFF7B7FF4CF287
:1006F0005030FFF731FF236923F00203236110B16B
:10070000C8F80060CFE706F58066E7E70220BDE89D
:10071000F08100BFD8000020002002402DE9F74FF3
:1007200000242646664BDFF8A8E1DFF8A8C10A6876
:1007300032FA06F502D103B0BDE8F08F4FF00108A0
:1007400008FA06F802EA080290457FD14D68122D9A
:1007500000F0AA8000F28380022D00F0A28077D8FA
:10076000002D00F08980012D00F099804FF00F09D5
:10077000FF2A93BF824606F18045083DD0F800B0BD
:1007800092BFB500D0F804B0AD0009FA05F82BEA25
:10079000080804FA05F588BF00F1040A48EA0505CF
:1007A000CAF80050D1F804A01AF0805F4ED0454D31
:1007B000444FAD6926F0030845F00105BD61BD69F0
:1007C00008F1804805F00105019508F5803806F02C
:1007D000030B019D4FEA8B0BD8F8085009FA0BF96F
:1007E00025EA0909384DA84263D005F58065A8427D
:1007F00061D005F58065A8425FD005F58065A84207
:100800000CBF0325042505FA0BF545EA0905C8F8D0
:1008100008501D681AF4803F14BF154395431D60AE
:100820005D681AF4003F14BF154395435D609D68F1
:100830001AF4801F14BF154395439D60DD681AF4B8
:10084000001F14BF2A4325EA0202DA6001366EE770
:10085000032D22D0112D89D1CC68043486E71B4F9B
:10086000BD4209D012D8DFF870904D4504D009F58B
:1008700080394D457FF47AAF8C68C4B1012C0CBF30
:10088000C0F81080C0F8148008246FE77545F3D0D5
:100890006545F1D0DFF84490EBE7002466E7CC68CB
:1008A00064E7CC68083461E7CC680C345EE7042464
:1008B0005CE70025A7E70125A5E70225A3E700BF20
:1008C0000004014000100240000801400000211017
:1008D0000000311000003210000011100000221042
:1008E0000AB1016170470904FBE700002DE9F341FB
:1008F000054608B901203CE00368DB0710D42B68EB
:100900009F075DD42B68190700F194802B685A0764
:1009100000F1BE80E869002840F02C81002028E02A
:100920008F4C636803F00C03042B07D0636803F05B
:100930000C03082B09D16368DE0306D523689C03EA
:10094000DDD56B68002BDAD1D4E76B68B3F5803F57
:1009500012D1236843F480332360FFF7C5FC0646B9
:1009600023689803CBD4FFF7BFFC801B6428F7D91A
:10097000032002B0BDE8F0819BB9236823F48033E3
:100980002360236823F480232360FFF7ADFC064631
:1009900023689903B3D5FFF7A7FC801B6428F7D918
:1009A000E6E7B3F5A02F236803D143F48023236047
:1009B000CFE723F480332360236823F48023CBE73D
:1009C000674C636813F00C0F07D0636803F00C03E7
:1009D000082B10D16368DA030DD423689B0702D576
:1009E0002B69012B86D123686A6923F0F80343EA57
:1009F000C203236086E72A695A4B6AB101221A6052
:100A0000FFF772FC064623689F07ECD4FFF76CFCE7
:100A1000801B0228F7D9ABE71A60FFF765FC064692
:100A2000236898077FF56EAFFFF75EFC801B0228F6
:100A3000F6D99DE7AA694A4C4B4BDAB101221A60FC
:100A4000FFF752FC0646636A9B070DD54FF4FA5236
:100A5000464B1B68B3FBF2F3019300BF019B5A1E88
:100A60000192002BF9D151E7FFF73EFC801B0228D1
:100A7000E9D97DE71A60FFF737FC0646636A9F07EE
:100A80007FF544AFFFF730FC801B0228F6D96FE7F3
:100A9000334CE369D80024D40127E36943F0805341
:100AA000E361E36903F080530093009B304E3368A9
:100AB000D90518D5EB68012B26D1236A43F0010331
:100AC0002362FFF711FC41F288368046236A9B07B8
:100AD0003FD5002F3FF41EAFE36923F08053E3615D
:100AE00018E70027E2E7336843F480733360FFF7C9
:100AF000FBFB80463368DA05DCD4FFF7F5FBA0EB9F
:100B000008006428F6D933E7ABB9236A41F2883884
:100B100023F001032362236A23F004032362FFF717
:100B2000E3FB0646236A9807D3D5FFF7DDFB801B5E
:100B30004045F7D91CE7052B236A03D143F0040392
:100B40002362BAE723F001032362236A23F004033C
:100B5000B6E7FFF7C9FBA0EB0800B042B6D907E73C
:100B60000010024000004242800442421C0000206B
:100B7000007000402A4B5A681C4602F00C02082AFA
:100B80003DD00023274E022833602BD1FFF7ACFB6A
:100B90000746236899011FD42B6AB3F5803F05D11E
:100BA000E26AA96822F00F020A43E262696A626897
:100BB0000B4322F474121343636001233360FFF785
:100BC00093FB054623689A013FF5A8AEFFF78CFB1F
:100BD000401B0228F6D9CBE6FFF786FBC01B022894
:100BE000D7D9C5E6FFF780FB054623689B017FF553
:100BF00095AEFFF779FB401B0228F6D9B8E601282D
:100C00003FF4B7AE58682B6A00F480329A427FF402
:100C100071AE6B6A00F47010C01A18BF0120A8E60C
:100C2000001002406000424230B589B06C461B4B58
:100C300003F11005224618685968083303C2AB4215
:100C40001446F7D1164B04AC03F110052246186880
:100C50005968083303C2AB421446F7D111494B68B7
:100C600003F00C02082A17D1C3F3834208A80244F8
:100C7000DB0312F8202C0CD5CB6A0B4803F00F03D2
:100C8000504308AA134413F8103CB0FBF3F009B02A
:100C900030BD06485043FAE70348F8E7002B000848
:100CA000102B00080010024000127A0000093D00DD
:100CB000F8B5054608B90120F8BD0268304C12F0BD
:100CC000020F11D0570742BF636843F4E0636360CB
:100CD000160742BF636843F46053636063688168CA
:100CE00023F0F0030B436360D0071BD42A6851073D
:100CF0003FD4130706D563682A6923F4605343EA97
:100D0000C2036360FFF790FF63681E4AC3F30313D7
:100D1000D35CD8401C4B18601C4B1868FFF7A8FA2E
:100D20000020F8BD6A682368012A1AD113F4003F35
:100D3000C1D0636841F2883723F003031343636033
:100D4000FFF7D2FA064663686A6803F00C03B3EB58
:100D5000820FCBD0FFF7C8FA801BB842F3D903202B
:100D6000F8BD022A02D113F0007FE1E713F0020F71
:100D7000DEE76368E96823F4E0630B436360B8E788
:100D800000100240802C00081C00002004000020FD
:100D9000044B054A5B68C3F30223D35C034A106823
:100DA000D840704700100240902C00081C00002022
:100DB000044B054A5B68C3F3C223D35C034A106843
:100DC000D840704700100240902C00081C00002002
:100DD0000368DA6822F49072DA605A6922F001023C
:100DE0005A61202380F83A307047000038B5044635
:100DF0000268C168136923F440530B43136183688D
:100E00000069D1680343606921F416410343E06936
:100E100021F00C0103430B43D3605369A16923F410
:100E200040730B4353611B4B9A4221D1FFF7C0FF24
:100E3000E3692268B3F5004F4FF01903616803FBC3
:100E400000F018D14900B0FBF1F06424B0FBF4F5D8
:100E500004FB1503DB003233B3FBF4F303F00701AB
:100E60005B0001EB051103F4F8730B44936038BD8C
:100E7000FFF78EFFDCE78900B0FBF1F06421B0FBE7
:100E8000F1F401FB14031B013233B3FBF1F303EB69
:100E90000413EBE700380140F8B504460E46174648
:100EA0001D4621680B6836EA030301D10020F8BD16
:100EB0006B1CF7D095B923680320DA6822F4D0724E
:100EC000DA605A6922F001025A61202384F839302D
:100ED00084F83A30002384F83830F8BDFFF704FA7C
:100EE000C01B8542DDD2E6E710B5044640B390F85A
:100EF000393003F0FF021BB980F8382000F032FED1
:100F00002423226884F83930D368204623F4005320
:100F1000D360FFF76BFF236800201A6922F4904228
:100F20001A615A6922F02A025A61DA6842F40052C0
:100F3000DA602023E06384F8393084F83A3010BD59
:100F4000012010BD2DE9F843984690F83930044649
:100F5000202B0E4691464CD1002947D0002A45D07F
:100F600090F83830012B44D00123002580F8383028
:100F70002123C56380F83930FFF7B6F9A368074627
:100F8000B3F5805FA4F82490A4F8269003D12369D8
:100F90000BB935461E46002384F83830E38C9BB2EB
:100FA0005BB943463A4640212046FFF775FF58B9E2
:100FB000202384F83930BDE8F88343463A4680213F
:100FC0002046FFF769FF10B10320BDE8F8832268CF
:100FD0004EB935F8023BC3F308035360E38C013B81
:100FE0009BB2E384DAE716F8013BF6E70120BDE89F
:100FF000F8830220BDE8F8832DE9F843984690F87D
:101000003A300446202B0E4691464ED1002949D055
:10101000002A47D090F83830012B46D00123002514
:1010200080F838302223C56380F83A30FFF75CF946
:10103000A3680746B3F5805FA4F82C90A4F82E901F
:1010400003D123690BB935461E46002384F8383096
:10105000E08D80B220B9202384F83A30BDE8F883CF
:1010600043463A4620212046FFF716FF00BB23687F
:101070004EB95B68C3F3080325F8023BE38D013BDF
:101080009BB2E385E4E7A268B2F5805F02D02AB99B
:1010900022691AB95B6833700136EFE75B6803F0C9
:1010A0007F03F8E70120BDE8F8830220BDE8F8835C
:1010B0000320BDE8F883036810B5DA68044622F41B
:1010C000F072DA605A6922F001025A615A69110617
:1010D00013D55A69006B22F080025A6168B100236F
:1010E0004363FFF783F940B1206BFFF7E9F920284C
:1010F00003D110230320E36310BD23685A6952060D
:101100000FD55A69606B22F040025A6148B1002342
:101110004363FFF76BF920B1606BFFF7D1F920282B
:10112000E7D000202023E084E085E06384F83A30B3
:1011300084F8393010BD704790F83A3010B5222B42
:1011400032D18168836AB1F5805F026820D101697C
:1011500009BB5268C2F3080223F8022BC48D8362D4
:10116000013CA4B2C4858CB90368DA6822F020027D
:10117000DA60DA6822F48072DA605A6922F00102D9
:101180005A61202380F83A3000F0C0F8002010BDEA
:1011900031B9016921B952681A70836A0133DDE7F8
:1011A000526802F07F02F7E7022010BD704700008E
:1011B000036870B51A6804461607D9685D6907D1D7
:1011C00096065CD58D065AD5BDE87040FFF7B4BFD2
:1011D00015F0010502D111F4907F50D0D00705D54C
:1011E000CB0542BFE36B43F00103E363560704D52D
:1011F0001DB1E36B43F00203E363900704D51DB117
:10120000E36B43F00403E363130706D58E0600D4B3
:101210001DB1E36B43F00803E363E36B002B64D081
:10122000950604D5880602D52046FFF785FF23687A
:1012300020465D69E26B110702D415F040051AD013
:10124000FFF7C6FD23685A69520610D55A69606BCC
:1012500022F040025A6150B1244B4363FFF7E8F893
:10126000002842D0606BBDE87040436B18472046B1
:10127000FFF79CFF70BDFFF799FFE56370BD160691
:1012800025D50D0623D594F83920212A2DD1A26821
:10129000B2F5805F226A15D1216999B932F8021B33
:1012A000C1F3080159602262E28C013A92B2E284F1
:1012B000DAB9DA6822F08002DA60DA6842F04002D5
:1012C000DA6070BD511C216212785A60ECE750065A
:1012D0000BD54A0609D5DA68204622F04002DA60CA
:1012E000202384F83930FFF726FF70BDF112000883
:1012F00008B50023406AC385C384FFF757FF08BDC4
:1013000090F8392090F83A00104370477047000079
:101310004FF4817358430B4A70B5135A155ADBB218
:10132000C5F307250133AB4202EB000409D0135A81
:10133000165ADBB25D1CEDB265F307062344165264
:10134000997070BDFA00002010B50446FEF76AFFE0
:101350002146BDE8104082B214230148FFF7F2BDD8
:101360002806002040F60D2373B502AC24F8043D96
:101370000646FEF757FF074D82B231461423284632
:10138000FFF7E0FD0A23022221462846FFF7DAFD97
:1013900002B070BD280600204FF4817358430D4AF7
:1013A00030B5145A135AE4B2C3F307239C4202EB3C
:1013B00000010CD0135A155AC3F307235C1CE4B286
:1013C00064F30F2515520B449878C0B230BD4FF02E
:1013D000FF3030BDFA0000204FF4817300220A492B
:1013E00010B503FB0010134640F2011184180132BE
:1013F0008A42A370FAD1028863F30702028002884E
:1014000063F30F22028010BDFA0000204FF48173B5
:101410005843084A115A135AC9B2C3F307239942D1
:101420001FBF135A105ADBB2C0F3072014BF181A9B
:1014300000207047FA0000202DE9F84306460F46C9
:101440009046FEF751FF00248146FEF74DFFA0EBCA
:101450000900804507D8002330463B55FFF7BCFF05
:10146000601CBDE8F8833046FFF7D0FF0028ECD0C1
:101470003046FFF791FFC0B20D2804F1010507D1F6
:10148000002330463B55FFF7A7FF2846BDE8F88309
:101490000A28F5D038552C46D7E700004FF00063F6
:1014A000064903F58062904201D2834204D98A4200
:1014B0001346F6D14FF0FF3318467047000002087C
:1014C00030B587B005460C46FFF724F8002301939A
:1014D00002930123641B01A9A40A02A803930594A3
:1014E0000495FFF7CDF80446FFF726F8002C14BF4B
:1014F000FF20002007B030BD2DE9F8430025064647
:101500008846174699462C46FFF704F84D4500D00B
:1015100024B1FFF711F82046BDE8F883464514D200
:10152000234657F8252031460220FFF73FF80028D0
:1015300018BF0224336857F8252004369A421CBF8E
:1015400044F00404E4B20135E0E70124FBE70000C5
:10155000002370B504461846064D934200D000B1F2
:1015600070BDAC4296BF54F8046B012041F8236073
:101570000133F2E71E3C0108F7B5074608460D4661
:10158000FEF750FE10F0030618BF012606EB90068A
:10159000FEF7C0FF3846FFF781FF044607EB8600E1
:1015A000FFF77CFF0022124B01A99C60041BA40AD8
:1015B000013418461A60DC60FFF762F8A0B1FEF74C
:1015C000C5FF03B0F0BD54F8042B00230220FEF742
:1015D000EDFF0028F3D10135B54207EB0401F2DB42
:1015E000FEF7AAFF0020ECE72C4605463F1BF3E779
:1015F000A4000020401A0B580B600B68013302D185
:1016000000230B6070470431F5E770B505460E46C0
:10161000FEF708FE10F0030318BF0123002203EBBE
:1016200090039B009A4200DB70BD02F00300911012
:10163000C40055F82100E040B0540132F2E7000048
:10164000064B10B51C68FEF703FE054B1B6883F3C1
:1016500008882346BDE81040184700BF0440010831
:101660000040010810B5044600F01CFE001B10BD30
:1016700030B505460A445C1B0444002C05DC0022FE
:1016800023EAE373C254184430BD12F8011B05F875
:10169000011BF0E7421E00F5FA63002012F8011F5B
:1016A00019B12A2901D09A4200D170474840F5E784
:1016B00010B590B02822002106A800F0BFFD00213F
:1016C000142201A800F0BAFD01244FF4803306A8CB
:1016D00006940793FFF70AF9014600B1FEE70F23CE
:1016E00003900490059001A801930294FFF7E0FA9B
:1016F00000B1FEE710B010BD2DE9F04188B0FEF753
:10170000DBFDFFF7D5FF10220025022400210DEBA1
:10171000020000F093FD8D4B4FF440719A698C48A4
:1017200042F020029A619A6902F020020192019A25
:101730009A6942F008029A619A6902F008020292DC
:10174000029A9A6942F004029A619B69002203F0AE
:1017500004030393039BFFF7C3F804A97C48049494
:1017600005950695FEF7DAFF4FF4407304930123C5
:1017700004A97748059307940695FEF7CFFF4FF429
:10178000E133744C744A204684E80C000C23A560B5
:10179000E56025616361A561E561FFF7A5FB024690
:1017A00000B1FEE721682520CB686C4C43F0200394
:1017B000CB600321FEF7C2FD2520FEF7F3FD68494B
:1017C0006848FFF717FF68496548FFF71EFF216863
:1017D0006548FEF71DFD70B16448FFF7C3FD216841
:1017E0006048FFF7C9FE5E495E48FFF703FF5E49A8
:1017F0005B48FFF70AFF5C4B22685D495D4800F0DB
:1018000025FD5C48FFF7AEFD5B4F5C48FFF7AAFD86
:101810005B48FFF7A7FD3E465A4DFEF765FD386071
:101820000020FFF7F3FD002800F0D780282229468A
:101830000020FFF701FE544C02462B4653494D4809
:1018400000F004FD4B48FFF78DFD2946204600F0CF
:1018500021FD2846FEF7E6FC2C2323542846FEF7FC
:10186000E1FC0D23204443702846FEF7DBFC0A23ED
:101870002044837046492046FFF7F4FE00220346C9
:1018800021464448FFF7F4FE41492046FFF7EAFEAF
:1018900080462046FEF7C6FC08F10102431C2146A3
:1018A0002046FFF7E5FE3A492046FFF7DBFE00221F
:1018B000034621463848FFF7DBFE35492046FFF74F
:1018C000D1FE80462046FEF7ADFC08F10102431C24
:1018D00021462046FFF7CCFE2D492046FFF7C2FEE9
:1018E0000022034621462D48FFF7C2FE2849204624
:1018F000FFF7B8FE80462046FEF794FC2146431CC5
:1019000008F101022046FFF7B3FE25492148FEF702
:101910007FFC28B123491F48FEF77AFC002849D1F3
:101920002148FFF71FFD2148FFF71CFD084D204C03
:1019300001224FF400712846FEF7D2FF00F074FB3D
:10194000204600F0C5F9FFF77BFEF1E700100240EA
:10195000000C014028060020003801400C00002047
:10196000D0060020007C0008E0060020202B0008A4
:10197000452B00086C060020680600206C2B000830
:10198000952B0008B40500200C050020B22B0008A0
:10199000C02B00089C050020700500208805002051
:1019A000C22B0008C42B0008C62B0008E82D000835
:1019B000462C000841494248FEF72AFC28B141491B
:1019C0003F48FEF725FC00284CD13F48FFF7CAFCF2
:1019D0003E4800F07DF9FFF733FE3D4C3368226846
:1019E0009B1A3C4A1268934215D33B4B3B481A78EA
:1019F000511C19703A4900F029FC3848FFF74AFE9B
:101A0000364A03463749104600F020FC3348FFF7BA
:101A1000A9FC33682360DFF804813368D8F800201C
:101A20009B1A314A126893420DD3304C4FF4007127
:101A300022782F48FEF754FF237883F001032370A8
:101A40003368C8F800302B4A336812689B1A2A4A58
:101A500012689342FFF4E1AE1C4800F039F9FFF739
:101A6000EFFDDAE625491648FEF7D2FB044608BB2F
:101A70002348FFF777FC23492348FFF7F3FD22496A
:101A8000034622462148FFF7F3FD21491F48FEF790
:101A9000BFFB0028A1D11F49104800F0FBFB0F48F5
:101AA000FFF7F8FD0D4A03460E49104600F0CEFB45
:101AB0000A4836E71848FFF755FC8EE7CA2B00089E
:101AC0009C050020CC2B0008CE2B0008D12B000851
:101AD0002406002014000020080000206C060020CE
:101AE000382C00081B2C000818000020B40000202F
:101AF000000C01408405002010000020F22B00089B
:101B0000F82B00080D2C000888050020180600207E
:101B1000192C00080F2C0008252C0008B005002007
:101B20000E4B82B09A6942F001029A619A6902F002
:101B300001020092009ADA6942F08052DA61DB69B0
:101B4000074A03F080530193019B536823F0E0633D
:101B500043F00073536002B0704700BF00100240B2
:101B60000000014010B5044686B01022002102A8F2
:101B700000F064FB22681B4B9A4230D103F55843B6
:101B80009A6902A942F480429A619A69164802F45D
:101B900080420092009A9A69002442F004029A61FD
:101BA0009B6903F004030193019B4FF400730293BC
:101BB0000223039303230593FEF7B0FD4FF48063E4
:101BC00002A90948029303940494FEF7A7FD252077
:101BD00022462146FEF7B2FB2520FEF7E3FB06B0C6
:101BE00010BD00BF00380140000801407047FEE70B
:101BF000FEE7FEE7FEE7704770477047FEF768BBF9
:101C000008B50748FFF7D4FA064B00205968C9B257
:101C1000FFF77EFB044A13680133136008BD00BF61
:101C200028060020003801400805002008B50A4BAE
:101C30000246196809B909491960694618680244D9
:101C40008A4206D900F0D0FA0C2303604FF0FF302F
:101C500008BD1A6008BD00BFB80000207007002052
:101C6000104B1A6842F001021A6059680E4A0A4085
:101C70005A601A6822F0847222F480321A601A685C
:101C800022F480221A605A6822F4FE025A604FF44D
:101C90001F029A600022DA624FF00062034B9A60E2
:101CA000704700BF001002400000FFF800ED00E0A8
:101CB00008B50A464FF47A7301460448FFF79CF9C9
:101CC000002814BFFF20002008BD00BF2806002008
:101CD00008B5014600239AB2885C01330028FAD186
:101CE0004FF47A730348FFF72DF9002814BFFF2043
:101CF000002008BD2806002007B58DF807000B4816
:101D0000FFF7FEFAA02802D10848FFF7D4F94FF4F4
:101D10007A7301220DF107010448FFF713F9002837
:101D200014BFFF20002003B05DF804FB280600204C
:101D30002DE9F04F0128ADF2144D28D002280BBF39
:101D40004FF4806600260024FF24022102A8FFF73A
:101D5000AFFF3146054604A8FFF7AAFF022105435D
:101D600003A8FFF7A5FFEDB228433346002541F253
:101D70002107C0B20DF10F0163B9B708DFF8089170
:101D8000DFF80881D0B144F00404E4B238E08026E2
:101D90000024DAE711F8012F013B85EA0225082229
:101DA0009BB215F4004F4FEA4505ADB202F1FF3288
:101DB00018BF7D4012F0FF02F3D1DDE7002C3ED1C9
:101DC0002B4B9DF80CB01A789DF80DA042B929490B
:101DD00029480193FFF774FB98BB0122019B1A70FD
:101DE0009DF808009DF8092098F8001002448842E8
:101DF00018BF0224FF2A4AEA0B2315D1AB421BD19C
:101E000098F80020BBB2914409F8013C3CB91B4D45
:101E100004AA18492868FFF76FFBA0B108242046E0
:101E20000DF2144DBDE8F08FAB4204D1894409F89E
:101E3000017C0224F3E7022444F00104A5E7FF2417
:101E4000DEE70824DCE72B684FF400711E442E60A7
:101E500098F800300A4D01332A780A4888F8003093
:101E6000FEF73EFD2B7883F001032B70D7E700BF10
:101E7000C00000201F3C010800800008C4000020B2
:101E8000BC000020000C014058070020200000206A
:101E900008B503780133DBB2022B037007D9182091
:101EA000FFF72AFF1820FFF727FFFF2008BD1520A6
:101EB000FFF722FF002008BD2DE9F04F474BA1B0EE
:101EC0001F684749474807F18008FFF7F9FA0028DB
:101ED00079D1434B434A4449444800F0B7F9434859
:101EE000FFF740FA424D3F4CDFF8F490DFF830A1A5
:101EF000DFF830B1454536D342463E493B4800F015
:101F0000A5F93A48FFF72EFA22463B49374800F038
:101F10009DF93648FFF726FA07F17842A2F5FF420D
:101F20003649324800F092F93048FFF71BFA04F1C5
:101F30007842A2F5A03232492C4800F087F92B48AC
:101F4000FFF710FA274A2F49284800F07FF9274861
:101F5000FFF708FA4FF47A70FEF7CCF9FFF770FB41
:101F600021B0BDE8F08F202269462846FFF7F0FA3D
:101F700018B12548FFF7E8F9BCE720236A4649462F
:101F80002046FFF7B9FA08B12048F3E750468034FD
:101F90008035FFF7D9F91E4E23462A465946134885
:101FA00000F054F91148FFF7DDF932784FF4007171
:101FB0001848FEF795FC33780A2083F0010333704C
:101FC000FEF798F996E7144B064A1449074800F0C3
:101FD0003DF90648FFF7C6F9024C8DE7C400002022
:101FE000DFFB010800400108982C0008F4060020DF
:101FF00000800008532D00086E2D0008892D000870
:10200000A12D0008B92D0008C42C0008D22C00080E
:10201000BC000020000C0140FFFF0108262D000835
:10202000E12C0008F22C0008002301222DE9F341E5
:102030004E4C8DF805308DF8063023704C4B4D49D1
:102040001A704D4A4D4B4E481A6000F023F94C4827
:10205000FFF720FB4A4A03464A49104600F0F6F8CB
:102060004748FFF77FF93220FEF744F9464D474EC7
:10207000DFF824819DF80530A3B98DF807302B884F
:102080001D2B12D942493E4800F004F93C48FFF7A5
:1020900001FB3B4A03463B49104600F0D7F838485D
:1020A000FFF760F902B0BDE8F08101210DF10700F2
:1020B000FFF7FEFD074688B12378D3B94320FFF729
:1020C0001BFE2B88327801334FF4007140462B8081
:1020D000FEF706FC337883F0010333709DF80700A8
:1020E000042828D00ED8431E012B11D9002FC1D1AE
:1020F0001AE0012BF2D10DF10600FFF7C9FE8DF8B1
:102100000500EBE71828F1D1FF238DF80530B1E782
:10211000FFF70EFE18B90620FFF7EEFDAAE7082824
:1021200002D103238DF806300DF10600FFF7B0FE53
:102130008DF805009EE70620FFF7DEFD4FF47A706C
:10214000FEF7D8F813490E4800F0A4F80C48FFF742
:10215000A1FA0B4A03460B49104600F077F80848ED
:10216000FFF700F9FFF7A8FE84E700BFC0000020DA
:1021700020000020E92D000800800008C400002095
:10218000F40600201B2C0008BE000020BC0000202C
:10219000F52D0008042E0008000C0140002103E08A
:1021A0000B4B5B58435004310A480B4B42189A4280
:1021B000F6D30A4A02E0002342F8043B084B9A4255
:1021C000F9D3FFF74DFD00F015F8FFF795FA7047CA
:1021D000502E000800000020880000208800002009
:1021E00070070020FEE70000014B1868704700BF31
:1021F0002400002070B500250C4E0D4CA41BA4102B
:10220000A54209D100F070FC00250A4E0A4CA41B1F
:10221000A410A54205D170BD56F825309847013568
:10222000EEE756F8253098470135F2E7482E0008CA
:10223000482E0008482E00084C2E00080346024491
:10224000934200D1704703F8011BF9E70EB44FF435
:10225000027100B59CB0ADF814106FF0004104910C
:1022600007914FF6FF711DAB02900690084853F896
:10227000042BADF81610006802A9019300F088F84D
:102280000022029B1A701CB05DF804EB03B070478B
:1022900024000020034611F8012B03F8012B002A2B
:1022A000F9D17047F0B5037833B1034618465E1C88
:1022B0001B7833B91846F0BD0B78002B18BF0020EF
:1022C000F0BD4D1E441E15F8012F002AF3D014F85E
:1022D000017F33469742F6D0E8E72DE9F0478E6854
:1022E00082469E420C469146984635D88A8912F419
:1022F000906F31D00223256809696F1A656905EB73
:10230000450595FBF3F508F101033B449D4238BFB9
:102310001D46530531D5294600F046FB064650B907
:102320000C23CAF80030A3894FF0FF3043F040037C
:10233000A381BDE8F0873A46216900F0C3FAA3897A
:1023400023F4906343F08003A38126613E4426601A
:1023500046466561ED1BA560464528BF4646494691
:102360003246206800F0B9FAA36800209B1BA360E6
:1023700023681E442660BDE8F0872A4600F072FB01
:1023800006460028E1D12169504600F0C1FAC7E7AE
:102390002DE9F04F9DB003938B8980461C060D46B6
:1023A00016460FD50B696BB9402100F0FDFA286085
:1023B000286128B90C23C8F800304FF0FF30C4E082
:1023C00040236B610023099320238DF829303023AB
:1023D0004FF0010B8DF82A3037463C4614F8013B8C
:1023E000002B3CD1B7EB060A0BD0534632462946A8
:1023F0004046FFF772FF013000F0A280099B534472
:1024000009933B78002B00F09B8000234FF0FF32B4
:1024100004930793059206938DF853301A9305227F
:102420002178504800F040FA671C049BD8B9D906BF
:1024300044BF20228DF853201A0744BF2B228DF869
:10244000532022782A2A16D000210A20079A2746EC
:102450003B780134303B092B50D9C9B111E0252B11
:10246000C0D02746B9E73F4A3C46801A0BFA00F035
:1024700018430490D3E7039A111D12680391002AB0
:1024800001DB079204E0524243F0020307920493F7
:102490003B782E2B0DD17B78791C2A2B32D1039BD4
:1024A00002371A1D1B680392002BB8BF4FF0FF3391
:1024B00005932D4C03223978204600F0F5F938B108
:1024C0004023001B03FA00F0049B013703430493ED
:1024D0003978062225487E1C8DF8281000F0E4F992
:1024E000002835D0224BFBB9039B073323F00703A9
:1024F00008330393099B4B4409936DE700FB0232B9
:102500000121A4E700230A24184605930F463A78D0
:102510000131303A092A03D9002BCAD00590C8E707
:1025200004FB00200123F1E703AB00932A46114B83
:1025300004A94046AFF30080B0F1FF3F8146D9D1F6
:10254000AB895B063FF539AF09981DB0BDE8F08F48
:1025500003AB00932A46074B04A9404600F084F8D9
:10256000EAE700BF122E0008182E00081C2E0008F3
:1025700000000000DB2200082DE9F04791461F46CD
:102580008A680B6906469342B8BF1346C9F8003003
:1025900091F843200C46DDF8208012B10133C9F8D0
:1025A00000302368990642BFD9F800300233C9F8D9
:1025B0000030256815F0060507D104F1190AE36813
:1025C000D9F800209B1A9D422ADB94F843302268F8
:1025D000003318BF012392062FD404F14302394679
:1025E0003046C047013022D02368E56803F0060377
:1025F000042B18BF0025D9F800204FF0000908BFB0
:10260000AD1AA368226908BF25EAE5759342C4BFE5
:102610009B1AED181A344D451BD10020BDE8F087F8
:102620000123524639463046C047013003D14FF0AE
:10263000FF30BDE8F0870135C1E73020E11881F8AF
:1026400043005A1C94F845102244023382F8431088
:10265000C3E70123224639463046C0470130E6D061
:1026600009F10109D7E700002DE9F04317460A7E7A
:1026700085B06E2A984606460C460C9B01F1430E27
:1026800000F0BC801AD8632A2ED00AD8002A00F0A5
:10269000C880582A00F08A8004F1420584F842205C
:1026A0002AE0642A01D0692AF6D121681A6811F05B
:1026B000800F23D0111D1960136827E0732A00F0E2
:1026C000B48008D86F2A2AD0702AE5D10A6842F06F
:1026D00020020A6003E0752A21D0782ADCD1782212
:1026E0006F4984F8452064E01A6801F14205111D24
:1026F0001960136884F842300123A3E011F0400F01
:1027000002F104011960D7D0B2F90030002B03DACE
:102710002D225B4284F8432062490A2217E0206898
:10272000196810F0800F03D0081D18600B6806E0D0
:1027300010F0400F01F104001860F7D00B886F2AE9
:1027400014BF0A2208225749002084F84300656814
:10275000002DA560C0F29C80206820F0040020605D
:10276000002B3FD1002D40F095807546082A0BD1F3
:102770002368DA0708D5236962689A42DEBF3023EE
:1027800005F8013C05F1FF35AEEB05032361CDF8FB
:1027900000803B4603AA21463046FFF7EDFE01309C
:1027A00055D14FF0FF3005B0BDE8F08381F84520EA
:1027B0003C492268186812F0800F00F104051D6082
:1027C00001D0036802E05506FBD50388D00744BF5B
:1027D00042F0200222601BB9226822F0200222600F
:1027E0001022B1E77546B3FBF2F002FB1033CB5C6D
:1027F00005F8013D03460028F5D1B7E708681A68D7
:1028000010F0800F496904D0101D1860136819601A
:1028100007E010F0400F02F1040018601368F6D0D2
:102820001980002375462361B1E71A68111D1960EC
:10283000156800216268284600F036F808B1401B90
:10284000606063682361002384F843309FE7236955
:102850002A4639463046C0470130A2D023689B073C
:1028600007D5002504F11909E368039A9B1A9D42D4
:1028700005DBE068039B9842B8BF184693E7012345
:102880004A4639463046C04701308AD00135EBE729
:10289000002BA7D10B7804F1420584F8423065E79C
:1028A000342E0008232E000810B5C9B2024490420D
:1028B000034601D1002010BD1C7801308C42F6D1B6
:1028C000184610BD10B5431E0A44914200D110BDF8
:1028D00011F8014B03F8014FF7E7884210B501EBFF
:1028E000020303D8421E99420CD110BD9842F9D27E
:1028F0008118D21AD34200D110BD13F8014D01F84E
:10290000014DF7E711F8014B02F8014FEBE700002A
:1029100038B50546002943D051F8043C0C1F002B64
:10292000B8BFE41800F0D4F81E4A1368104633B953
:10293000636014602846BDE8384000F0CAB8A3427E
:102940000BD921686218934201BF1A685B6852185C
:10295000226063600460EDE713465A680AB1A24240
:10296000FAD919685818A0420BD1206801445818A8
:1029700082421960DED110685268014419605A60C1
:10298000D8E702D90C232B60D4E7206821188A42AB
:1029900001BF116852680918216062605C60C9E774
:1029A00038BD00BFC800002070B5CD1C25F0030560
:1029B00008350C2D38BF0C25002D064601DBA94239
:1029C00003D90C233360002070BD00F081F8234A46
:1029D0001468214691B9224C23681BB9304600F097
:1029E00067F820602946304600F062F8431C26D183
:1029F0000C233046336000F06CF8E4E70B685B1B97
:102A00001AD40B2B0FD90B60CC18CD50304600F0E8
:102A100060F804F10B00231D20F00700C31A1BD03F
:102A20005A42E25070BD8C420BBF63684B68136022
:102A3000636018BF0C46E9E70C464968CAE7C41C46
:102A400024F00304A04205D0211A304600F030F8EB
:102A50000130CDD02560D9E770BD00BFC80000208F
:102A6000CC000020F8B5074614460E4621B91146A1
:102A7000BDE8F840FFF798BF22B9FFF749FF2546A8
:102A80002846F8BD00F026F884420FD92146384682
:102A9000FFF78AFF05460028F2D031462246FFF7AD
:102AA00011FF31463846FFF733FFE9E73546E7E7E0
:102AB00038B50023054C054608462360FFF7B6F8F5
:102AC000431C02D1236803B12B6038BD6C07002082
:102AD0007047704751F8040C0028A0F10400BCBFF7
:102AE0000B58C01870470000F8B500BFF8BC08BC10
:102AF0009E467047F8B500BFF8BC08BC9E467047BC
:102B000002030405060708090A0B0C0D0E0F10102E
:102B10000102030405060708090A0B0C0D0E0F102D
:102B20000A20577269746520626F6F746C6F6164FC
:102B300065722076657273696F6E20746F20666CA3
:102B40006173682100486F6E657920546F617374FA
:102B5000203A20426F6F746C6F61646572566572C3
:102B600073696F6E2025732C25730A003D3D3D3D32
:102B700020506C6561736520636F6E6669726D20AD
:102B800077697468696E2035207365636F6E6420A1
:102B90003D3D3D3D002D3E204E6577206669726DBE
:102BA00077617265203A205B595D206F72205B4E21
:102BB0005D002D3E205B25645D5258313A2573003F
:102BC0002C0059007900596573004E006E004E6F5D
:102BD000004A756D70696E6720746F207573657239
:102BE000206170706C69636174696F6E2E2E2E0A9D
:102BF0000D002446575550004E6577206669726D6A
:102C0000776172652075706461746521002A002403
:102C1000465755502C41434B2C310025732A253003
:102C200032582A2300436F6D6D616E64206E6F749D
:102C300020666F756E64210024465755502C424F14
:102C40004F542C2564000A0D20586D6F64656D206B
:102C50005472616E73666572204661696C65642E9C
:102C60002E2E204A756D7020746F206F6C64207555
:102C7000736572206170702E0A0D0042303036008C
:102C8000000000000000000001020304060708091C
:102C900000000000010203044F4B2E2E2E2E206553
:102CA0007261736520617070322066726F6D205B97
:102CB0003078253038585D20746F205B30782530AF
:102CC00038585D0052656164206572726F722E2EF5
:102CD0002E005772697465206572726F722E2E2EE7
:102CE000005772697465204F4B2E2E2E2E2E2E2EDD
:102CF0002E0061707020315F666C617368206164C2
:102D000064723A20307825303858207C2061707009
:102D100020325F666C61736820616464723A2030AF
:102D20007825303858006572722E2E2E2E2065724E
:102D300061736520617070322066726F6D205B3048
:102D400078253038585D20746F205B307825303816
:102D5000585D000A2D3E20656E645F616464725F99
:102D600061707031203A20307825303858002D3E7F
:102D700020656E645F616464725F61707032203AD6
:102D8000203078253038580A000A2D3E20757365AA
:102D9000725F617070315F73697A65203A202564D3
:102DA000002D3E20757365725F617070325F7369CC
:102DB0007A65203A2025640A004A756D7020746F88
:102DC000204170706C6C69636174696F6E205B7315
:102DD000746172742061646472203A203078253006
:102DE0003858205D200A0A0A0024465755502C41C5
:102DF000434B2C32000D0A24465755502C41434B6F
:102E00002C2D31000A0D24465755502C41434B2C94
:102E10003300232D302B2000686C4C00656667451D
:102E20004647003031323334353637383941424342
:102E300044454600303132333435363738396162F3
:082E40006364656600000000F8
:042E4800F501000888
:042E4C00D1010008A8
:102E50000100000010000000010000007B2C0008B1
:102E600088130000E8030000F401000000366E0142
:102E70000100000028000020000000000000000009
:102E80000000000000000000000000000000000042
:102E90000000000000000000000000000000000032
:102EA0000000000000000000000000000000000022
:102EB0000000000000000000000000000000000012
:102EC0000000000000000000000000000000000002
:082ED0000000000000000000FA
:040000050800219D31
:00000001FF
