:020000040800F2
:1000000000200020851F0008C91A0008CB1A00082C
:10001000CD1A0008CF1A0008D11A0008000000000D
:10002000000000000000000000000000D31A0008DB
:10003000D51A000800000000D71A0008D91A0008D5
:10004000CD1F0008CD1F0008CD1F0008CD1F0008E0
:10005000CD1F0008CD1F0008CD1F0008CD1F0008D0
:10006000CD1F0008CD1F0008CD1F0008CD1F0008C0
:10007000CD1F0008CD1F0008CD1F0008CD1F0008B0
:10008000CD1F0008CD1F0008CD1F00080000000094
:10009000000000000000000000000000CD1F00086C
:1000A000CD1F0008CD1F0008CD1F0008CD1F000880
:1000B000CD1F0008CD1F0008CD1F0008CD1F000870
:1000C000CD1F00080000000000000000CD1F000848
:1000D000CD1F0008DD1A0008CD1F0008CD1F000845
:1000E000CD1F0008CD1F0008CD1F00080000000034
:1000F0000000000000000000000000000000000000
:1001000000000000000000000000000000000000EF
:100110000000000000000000CD1F0008CD1F0008F7
:1001200000000000000000000000000000000000CF
:1001300000000000000000000000000000000000BF
:1001400000000000000000000000000000000000AF
:10015000000000000000000000000000000000009F
:10016000000000000000000000000000000000008F
:10017000000000000000000000000000000000007F
:10018000000000000000000000000000000000006F
:10019000000000000000000000000000000000005F
:1001A000000000000000000000000000000000004F
:1001B000000000000000000000000000000000003F
:1001C0000000000000000000000000005FF808F1DF
:1001D00010B5054C237833B9044B13B10448AFF381
:1001E00000800123237010BD880000200000000063
:1001F000D028000808B5034B1BB103490348AFF3EF
:10020000008008BD000000008C000020D0280008FD
:1002100010F8012B11F8013B012A28BF9A42F7D0B0
:10022000D01A7047034613F8012B002AFBD1181A85
:1002300001387047D0400B1CD1409C46203AD34037
:10024000184352426346934018437047704700007A
:1002500010B54FF0FF320024044BDA601C61DA6005
:10026000DC60FFF7F3FF204610BD00BF0010024026
:1002700038B50E4B054618784FF47A73B3FBF0F39C
:100280000B4A1068B0FBF3F000F09AF8044658B936
:100290000F2D09D8024629464FF0FF3000F04EF8E6
:1002A000044B20461D6038BD012038BD00000020F1
:1002B000180000200400002008B5032000F02CF8EE
:1002C0000020FFF7D5FF01F099FB002008BD0000DA
:1002D000034A044B11681B780B441360704700BF3E
:1002E000C000002000000020014B1868704700BFCC
:1002F000C000002038B50446FFF7F6FF0546631C32
:100300001EBF044B1B78E418FFF7EEFF401B84422E
:10031000FAD838BD00000020074A0002D36800F474
:10032000E06023F4E0631B041B0C43F0BF6343F461
:1003300000330343D360704700ED00E0174B30B546
:10034000DC68C4F30224C4F10703251D042B28BF75
:100350000423062D4FF0010598BF002405FA03F38E
:1003600003F1FF3388BF033C1940A14005FA04F4B0
:10037000013C2240002842EA01024FEA0212A9BFD2
:1003800000F16040064BD2B200F56140BBBF00F007
:100390000F00D2B280F800231A5430BD00ED00E007
:1003A00014ED00E0002808DB0123420900F01F00E3
:1003B00003FA00F0014B43F82200704700E100E02F
:1003C0000138B0F1807F0AD2F021064B064A58600E
:1003D00082F823100020072298601A6070470120DD
:1003E000704700BF10E000E000ED00E090F8213021
:1003F000022B06D004238363002380F820300120E1
:1004000070470368C16B1A6822F00E021A601A68FE
:1004100022F001021A600122036C02FA03F34B601E
:10042000002380F8212080F8203018467047000013
:1004300090F8213010B5022B03D0042383630120F0
:1004400010BD03681A6822F00E021A601A6822F0C2
:1004500001021A60184A93421FD0143293421ED0F0
:10046000143293421DD0143293421DD01432934261
:100470001DD0143293420CBF4FF480134FF08073A1
:100480000E4A00245360012380F82130436B80F82A
:1004900020407BB19847204610BD0123F0E7102390
:1004A000EEE74FF48073EBE74FF48053E8E74FF447
:1004B0008033E5E7184610BD080002400000024006
:1004C000806B7047114AD36813F0100305D01049B0
:1004D000CB6943F00203CB611023D268500706D5E5
:1004E0000B4943F00403CA6942F00102CA61074A9A
:1004F000D169C90708D50648C16941F00401C16145
:10050000D16921F00101D161D36070470020024020
:10051000C8000020064B186910F0800007D0054A7B
:100520005A6002F188325A601869C0F3C0107047EF
:100530000020024023016745034A0020136943F06D
:1005400080031361704700BF00200240F8B50646E3
:10055000FFF7CAFE114C07462546E368D80712D4B8
:10056000E368990644BF2023E360EB68DA0606D40B
:10057000EB69DB0703D4E86810F0040002D0FFF752
:10058000A1FF0120F8BD731CE7D00EB90320F8BD10
:10059000FFF7AAFEC01B8642DFD2F7E70020024029
:1005A0002DE9F84F1F4C9946237E0546012B0F4637
:1005B000904633D001234CF250302376FFF7C6FF2C
:1005C00040BB012D03D0022D0CBF022504250026BF
:1005D000B246DFF854B0320140464946FFF72AFEE2
:1005E000C4F81CA0DBF8103080B243F00103CBF854
:1005F000103027F816004CF25030FFF7A7FFDBF859
:10060000103023F00103CBF8103018B90136F3B2E3
:100610009D42E0D800232376BDE8F88F0220BDE894
:10062000F88F00BFC8000020002002400022064BC7
:10063000DA61064B1A6942F004021A611A6942F043
:1006400040021A61704700BFC8000020002002402D
:100650000022064BDA61064B1A6942F002021A6167
:1006600058611A6942F040021A617047C8000020C0
:10067000002002402DE9F041234D07462B7E88469D
:10068000012B3DD0012403682C76022B4CF2503014
:1006900013D1FFF75BFF20B1012000232B76BDE8CB
:1006A000F081FFF7C3FF4CF25030FFF74FFF174ABE
:1006B000136923F004031361EFE7FFF747FF0028F6
:1006C000EAD14FF0FF33C8F800302046BE680F4C27
:1006D000FA68BB6803EB82239E42DED23046FFF706
:1006E000B7FF4CF25030FFF731FF236923F00203CC
:1006F000236110B1C8F80060CFE706F58066E7E730
:100700000220BDE8F08100BFC800002000200240A8
:100710002DE9F74F00242646664BDFF8A8E1DFF805
:10072000A8C10A6832FA06F502D103B0BDE8F08F1D
:100730004FF0010808FA06F802EA080290457FD156
:100740004D68122D00F0AA8000F28380022D00F087
:10075000A28077D8002D00F08980012D00F09980CB
:100760004FF00F09FF2A93BF824606F18045083DEE
:10077000D0F800B092BFB500D0F804B0AD0009FACF
:1007800005F82BEA080804FA05F588BF00F1040A09
:1007900048EA0505CAF80050D1F804A01AF0805FB5
:1007A0004ED0454D444FAD6926F0030845F0010594
:1007B000BD61BD6908F1804805F00105019508F5A6
:1007C000803806F0030B019D4FEA8B0BD8F80850D8
:1007D00009FA0BF925EA0909384DA84263D005F555
:1007E0008065A84261D005F58065A8425FD005F517
:1007F0008065A8420CBF0325042505FA0BF545EAE0
:100800000905C8F808501D681AF4803F14BF154345
:1008100095431D605D681AF4003F14BF154395436E
:100820005D609D681AF4801F14BF154395439D6059
:10083000DD681AF4001F14BF2A4325EA0202DA60B9
:1008400001366EE7032D22D0112D89D1CC680434F6
:1008500086E71B4FBD4209D012D8DFF870904D4596
:1008600004D009F580394D457FF47AAF8C68C4B166
:10087000012C0CBFC0F81080C0F8148008246FE76A
:100880007545F3D06545F1D0DFF84490EBE70024DF
:1008900066E7CC6864E7CC68083461E7CC680C3460
:1008A0005EE704245CE70025A7E70125A5E702250C
:1008B000A3E700BF0004014000100240000801400F
:1008C0000000211000003110000032100000111053
:1008D000000022100AB1016170470904FBE7000023
:1008E0002DE9F341054608B901203CE00368DB0728
:1008F00010D42B689F075DD42B68190700F19480F2
:100900002B685A0700F1BE80E869002840F02C816E
:10091000002028E08F4C636803F00C03042B07D001
:10092000636803F00C03082B09D16368DE0306D566
:1009300023689C03DDD56B68002BDAD1D4E76B68A4
:10094000B3F5803F12D1236843F480332360FFF76F
:10095000CBFC064623689803CBD4FFF7C5FC801B6D
:100960006428F7D9032002B0BDE8F0819BB9236861
:1009700023F480332360236823F480232360FFF76C
:10098000B3FC064623689903B3D5FFF7ADFC801B83
:100990006428F7D9E6E7B3F5A02F236803D143F421
:1009A00080232360CFE723F480332360236823F47C
:1009B0008023CBE7674C636813F00C0F07D06368A4
:1009C00003F00C03082B10D16368DA030DD42368FD
:1009D0009B0702D52B69012B86D123686A6923F016
:1009E000F80343EAC203236086E72A695A4B6AB1D7
:1009F00001221A60FFF778FC064623689F07ECD4B3
:100A0000FFF772FC801B0228F7D9ABE71A60FFF7EB
:100A10006BFC0646236898077FF56EAFFFF764FC12
:100A2000801B0228F6D99DE7AA694A4C4B4BDAB1E4
:100A300001221A60FFF758FC0646636A9B070DD532
:100A40004FF4FA52464B1B68B3FBF2F3019300BF1D
:100A5000019B5A1E0192002BF9D151E7FFF744FC8C
:100A6000801B0228E9D97DE71A60FFF73DFC0646A6
:100A7000636A9F077FF544AFFFF736FC801B0228AF
:100A8000F6D96FE7334CE369D80024D40127E36932
:100A900043F08053E361E36903F080530093009BCC
:100AA000304E3368D90518D5EB68012B26D1236A5F
:100AB00043F001032362FFF717FC41F288368046BA
:100AC000236A9B073FD5002F3FF41EAFE36923F055
:100AD0008053E36118E70027E2E7336843F480734B
:100AE0003360FFF701FC80463368DA05DCD4FFF79A
:100AF000FBFBA0EB08006428F6D933E7ABB9236A07
:100B000041F2883823F001032362236A23F00403AF
:100B10002362FFF7E9FB0646236A9807D3D5FFF760
:100B2000E3FB801B4045F7D91CE7052B236A03D163
:100B300043F004032362BAE723F001032362236A2C
:100B400023F00403B6E7FFF7CFFBA0EB0800B042A9
:100B5000B6D907E70010024000004242800442423A
:100B600018000020007000402A4B5A681C4602F012
:100B70000C02082A3DD00023274E022833602BD1D7
:100B8000FFF7B2FB0746236899011FD42B6AB3F520
:100B9000803F05D1E26AA96822F00F020A43E262AF
:100BA000696A62680B4322F4741213436360012381
:100BB0003360FFF799FB054623689A013FF5A8AE1D
:100BC000FFF792FB401B0228F6D9CBE6FFF78CFB20
:100BD000C01B0228D7D9C5E6FFF786FB0546236868
:100BE0009B017FF595AEFFF77FFB401B0228F6D9EE
:100BF000B8E601283FF4B7AE58682B6A00F480329B
:100C00009A427FF471AE6B6A00F47010C01A18BF7C
:100C10000120A8E6001002406000424230B589B0D1
:100C20006C461B4B03F110052246186859680833BF
:100C300003C2AB421446F7D1164B04AC03F11005C6
:100C4000224618685968083303C2AB421446F7D1EC
:100C500011494B6803F00C02082A17D1C3F38342F1
:100C600008A80244DB0312F8202C0CD5CB6A0B48F1
:100C700003F00F03504308AA134413F8103CB0FBD1
:100C8000F3F009B030BD06485043FAE70348F8E7EF
:100C9000E8280008F82800080010024000127A0036
:100CA00000093D00F8B5054608B90120F8BD026805
:100CB000304C12F0020F11D0570742BF636843F463
:100CC000E0636360160742BF636843F46053636088
:100CD0006368816823F0F0030B436360D0071BD483
:100CE0002A6851073FD4130706D563682A6923F49D
:100CF000605343EAC2036360FFF790FF63681E4AD4
:100D0000C3F30313D35CD8401C4B18601C4B18680A
:100D1000FFF7AEFA0020F8BD6A682368012A1AD1ED
:100D200013F4003FC1D0636841F2883723F0030316
:100D300013436360FFF7D8FA064663686A6803F0F6
:100D40000C03B3EB820FCBD0FFF7CEFA801BB84277
:100D5000F3D90320F8BD022A02D113F0007FE1E7A6
:100D600013F0020FDEE76368E96823F4E0630B43E6
:100D70006360B8E7001002408F2A000818000020C6
:100D800004000020044B054A5B68C3F30223D35CD4
:100D9000034A1068D8407047001002409F2A00089C
:100DA00018000020044B054A5B68C3F3C223D35CE0
:100DB000034A1068D8407047001002409F2A00087C
:100DC000180000200368DA6822F49072DA605A6929
:100DD00022F001025A61202380F83A307047000067
:100DE00038B504460268C168136923F440530B43C5
:100DF000136183680069D1680343606921F4164177
:100E00000343E06921F00C0103430B43D3605369B2
:100E1000A16923F440730B4353611B4B9A4221D1C8
:100E2000FFF7C0FFE3692268B3F5004F4FF01903E5
:100E3000616803FB00F018D14900B0FBF1F06424B5
:100E4000B0FBF4F504FB1503DB003233B3FBF4F322
:100E500003F007015B0001EB051103F4F8730B4489
:100E6000936038BDFFF78EFFDCE78900B0FBF1F03F
:100E70006421B0FBF1F401FB14031B013233B3FB1B
:100E8000F1F303EB0413EBE700380140F8B5044637
:100E90000E4617461D4621680B6836EA030301D14A
:100EA0000020F8BD6B1CF7D095B923680320DA68E1
:100EB00022F4D072DA605A6922F001025A612023CA
:100EC00084F8393084F83A30002384F83830F8BD9B
:100ED000FFF70AFAC01B8542DDD2E6E710B50446EB
:100EE00040B390F8393003F0FF021BB980F8382086
:100EF00000F0A6FD2423226884F83930D368204608
:100F000023F40053D360FFF76BFF236800201A69B6
:100F100022F490421A615A6922F02A025A61DA6870
:100F200042F40052DA602023E06384F8393084F818
:100F30003A3010BD012010BD2DE9F843984690F8D5
:100F400039300446202B0E4691464CD1002947D01B
:100F5000002A45D090F83830012B44D001230025D9
:100F600080F838302123C56380F83930FFF7BCF9A9
:100F7000A3680746B3F5805FA4F82490A4F82690F0
:100F800003D123690BB935461E46002384F8383057
:100F9000E38C9BB25BB943463A4640212046FFF7BB
:100FA00075FF58B9202384F83930BDE8F8834346EB
:100FB0003A4680212046FFF769FF10B10320BDE8C3
:100FC000F88322684EB935F8023BC3F30803536037
:100FD000E38C013B9BB2E384DAE716F8013BF6E7CA
:100FE0000120BDE8F8830220BDE8F8832DE9F8432D
:100FF000984690F83A300446202B0E4691464ED142
:10100000002949D0002A47D090F83830012B46D02B
:101010000123002580F838302223C56380F83A3058
:10102000FFF762F9A3680746B3F5805FA4F82C9038
:10103000A4F82E9003D123690BB935461E46002330
:1010400084F83830E08D80B220B9202384F83A301B
:10105000BDE8F88343463A4620212046FFF716FFB5
:1010600000BB23684EB95B68C3F3080325F8023B55
:10107000E38D013B9BB2E385E4E7A268B2F5805FB4
:1010800002D02AB922691AB95B6833700136EFE7DA
:101090005B6803F07F03F8E70120BDE8F8830220D6
:1010A000BDE8F8830320BDE8F883036810B5DA686B
:1010B000044622F4F072DA605A6922F001025A61A1
:1010C0005A69110613D55A69006B22F080025A61E1
:1010D00068B100234363FFF789F940B1206BFFF744
:1010E000EFF9202803D110230320E36310BD236808
:1010F0005A6952060FD55A69606B22F040025A6154
:1011000048B100234363FFF771F920B1606BFFF72B
:10111000D7F92028E7D000202023E084E085E06391
:1011200084F83A3084F8393010BD704790F83A307E
:1011300010B5222B32D18168836AB1F5805F0268D5
:1011400020D1016909BB5268C2F3080223F8022BBF
:10115000C48D8362013CA4B2C4858CB90368DA688B
:1011600022F02002DA60DA6822F48072DA605A69CA
:1011700022F001025A61202380F83A3000F0C0F8D2
:10118000002010BD31B9016921B952681A70836A13
:101190000133DDE7526802F07F02F7E7022010BD5D
:1011A00070470000036870B51A6804461607D968CE
:1011B0005D6907D196065CD58D065AD5BDE87040AD
:1011C000FFF7B4BF15F0010502D111F4907F50D0A4
:1011D000D00705D5CB0542BFE36B43F00103E363C2
:1011E000560704D51DB1E36B43F00203E363900798
:1011F00004D51DB1E36B43F00403E363130706D585
:101200008E0600D41DB1E36B43F00803E363E36B88
:10121000002B64D0950604D5880602D52046FFF73A
:1012200085FF236820465D69E26B110702D415F043
:1012300040051AD0FFF7C6FD23685A69520610D53B
:101240005A69606B22F040025A6150B1244B4363EB
:10125000FFF7EEF8002842D0606BBDE87040436BAA
:1012600018472046FFF79CFF70BDFFF799FFE56325
:1012700070BD160625D50D0623D594F83920212AF0
:101280002DD1A268B2F5805F226A15D1216999B982
:1012900032F8021BC1F3080159602262E28C013A64
:1012A00092B2E284DAB9DA6822F08002DA60DA68AF
:1012B00042F04002DA6070BD511C216212785A601F
:1012C000ECE750060BD54A0609D5DA68204622F02D
:1012D0004002DA60202384F83930FFF726FF70BD22
:1012E000E512000808B50023406AC385C384FFF7F0
:1012F00057FF08BD90F8392090F83A001043704726
:10130000704700004FF4817358430B4A70B5135A6D
:10131000155ADBB2C5F307250133AB4202EB0004DB
:1013200009D0135A165ADBB25D1CEDB265F30706FD
:1013300023441652997070BDEA00002010B504468F
:10134000FEF770FF2146BDE8104082B21423014829
:10135000FFF7F2BD1C06002040F60D2373B502AC6A
:1013600024F8043D0646FEF75DFF074D82B2314684
:1013700014232846FFF7E0FD0A23022221462846CF
:10138000FFF7DAFD02B070BD1C0600204FF4817338
:1013900058430D4A30B5145A135AE4B2C3F3072325
:1013A0009C4202EB00010CD0135A155AC3F30723D9
:1013B0005C1CE4B264F30F2515520B449878C0B25C
:1013C00030BD4FF0FF3030BDEA0000204FF4817394
:1013D00000220A4910B503FB0010134640F2011128
:1013E000841801328A42A370FAD1028863F307029B
:1013F0000280028863F30F22028010BDEA00002001
:101400004FF481735843084A115A135AC9B2C3F3AF
:10141000072399421FBF135A105ADBB2C0F30720AB
:1014200014BF181A00207047EA0000202DE9F84385
:1014300006460F469046FEF757FF00248146FEF70A
:1014400053FFA0EB0900804507D8002330463B55E9
:10145000FFF7BCFF601CBDE8F8833046FFF7D0FF04
:101460000028ECD03046FFF791FFC0B20D2804F100
:10147000010507D1002330463B55FFF7A7FF28465B
:10148000BDE8F8830A28F5D038552C46D7E730B5A3
:1014900087B005460C46FFF73DF800230193029301
:1014A0000123641B01A9A40A02A8039305940495CF
:1014B000FFF7E0F80446FFF73FF8002C14BFFF20C9
:1014C000002007B030BD2DE9F843002506468846C8
:1014D000174699462C46FFF71DF84D4500D024B11C
:1014E000FFF72AF82046BDE8F883464514D2234684
:1014F00057F8252031460220FFF752F8002818BF80
:101500000224336857F8252004369A421CBF44F061
:101510000404E4B20135E0E70124FBE7002370B5E1
:1015200004461846064D934200D000B170BDAC424F
:1015300096BF54F8046B012041F823600133F2E7B1
:10154000EE3F0108064B10B51C68FEF781FE054B07
:101550001B6883F308882346BDE81040184700BF86
:10156000044001080040010810B5044600F08EFD5B
:10157000001B10BD30B505460A445C1B0444002C1A
:1015800005DC002223EAE373C254184430BD12F88C
:10159000011B05F8011BF0E7421E00F5FA6300206D
:1015A00012F8011F19B12A2901D09A4200D17047BF
:1015B0004840F5E710B590B02822002106A800F0B9
:1015C00031FD0021142201A800F02CFD01244FF46C
:1015D000803306A806940793FFF782F9014600B10D
:1015E000FEE70F2303900490059001A80193029455
:1015F000FFF758FB00B1FEE710B010BD2DE9F04138
:10160000002502248CB0FEF757FEFFF7D3FF10220F
:10161000002108A800F006FDB04B4FF440719A6914
:10162000AF4842F020029A619A6902F020020592C6
:10163000059A9A6942F008029A619A6902F00802D2
:101640000692069A9A6942F004029A619B69002206
:1016500003F004030793079BFFF73CF908A9A04890
:10166000089409950A95FFF753F84FF440730893CF
:10167000012308A99A4809930B940A95FFF748F8A3
:101680004FF4E133974C984A204684E80C000C2331
:10169000A560E56025616361A561E561FFF71EFC5A
:1016A000024600B1FEE721682520CB688F4F43F04A
:1016B0002003CB600321FEF741FE2520FEF772FEDA
:1016C0008B4A8C481178D378029151783E4601912B
:1016D000927889490092894A00F0ACFC8548FFF76E
:1016E0003BFE8748FFF738FE8648FFF735FE864DFC
:1016F000FEF7FAFD38600020FFF782FE002800F0B8
:10170000A780282229460020FFF790FE7F4C024642
:101710002B467F49774800F08DFC7648FFF71CFE8A
:101720002946204600F0AAFC2846FEF77BFD2C2324
:1017300023542846FEF776FD0D23204443702846A7
:10174000FEF770FD0A232044837072492046FFF79C
:101750000BFF0022034621466F48FFF70BFF6D4940
:101760002046FFF701FF80462046FEF75BFD08F1AB
:101770000102431C21462046FFF7FCFE6549204636
:10178000FFF7F2FE0022034621466448FFF7F2FE0F
:1017900060492046FFF7E8FE80462046FEF742FDFE
:1017A00008F10102431C21462046FFF7E3FE594998
:1017B0002046FFF7D9FE0022034621465848FFF78E
:1017C000D9FE54492046FFF7CFFE80462046FEF75B
:1017D00029FD2146431C08F101022046FFF7CAFEFD
:1017E00050494D48FEF714FD20B14F494A48FEF7D5
:1017F0000FFDC8B94D48FFF7AFFD4D48FFF7ACFDF1
:10180000374E4C4D4C4C01224FF400713046FFF7DF
:1018100061F8284600F0CAF900F040FB204600F0CD
:10182000C5F9FFF78FFEEEE744493B48FEF7F0FCB1
:1018300030B143493848FEF7EBFC002840F09A806D
:101840004048FFF789FD404800F0B0F9FFF77AFE05
:101850003E4C336822689B1A3D4A1268934215D366
:101860003C4B24481A78511C19703B4900F0E2FBAC
:101870002048FFF791FE1F4A03463849104600F002
:10188000D9FB1C48FFF768FD33682360DFF8E08070
:101890003368D8F800209B1A314A126893420DD35E
:1018A000304C4FF4007122780D48FFF713F823787D
:1018B00083F0010323703368C8F800302A4A336884
:1018C00012689B1A294A12689342FFF411AF1E480E
:1018D00000F06CF9FFF736FE0AE700BF0010024087
:1018E000000C01401C060020003801405C0600206E
:1018F000FC040020600600200D29000808290008CB
:10190000332900085C290008A805002000050020F4
:101910007929000887290008900500206405002027
:101920007C050020892900088B2900088D290008E2
:10193000912B00080D2A00085A2A00089129000856
:101940009329000895290008982900081806002006
:101950001000002008000020FF290008E2290008EC
:1019600014000020A4000020780500200C000020B6
:10197000A405002016491748FEF74AFC044610BB90
:101980001548FFF7E9FC15491548FFF7EDFD144927
:10199000034622461348FFF7EDFD13491148FEF7B1
:1019A00037FC00287FF454AF1049114800F066FB63
:1019B0000F48FFF7F1FD0E4A03460E49104600F0AE
:1019C00039FB0B4817E70C48FFF7C6FC40E700BFA0
:1019D000B929000890050020BF290008D429000873
:1019E0007C0500200C060020E0290008D62900080C
:1019F00060060020E2290008EC2900080E4B82B0A6
:101A00009A6942F001029A619A6902F00102009219
:101A1000009ADA6942F08052DA61DB69074A03F022
:101A200080530193019B536823F0E06343F00073FC
:101A3000536002B0704700BF001002400000014038
:101A400010B5044686B01022002102A800F0EAFA80
:101A500022681B4B9A4230D103F558439A6902A978
:101A600042F480429A619A69164802F480420092D8
:101A7000009A9A69002442F004029A619B6903F07B
:101A800004030193019B4FF4007302930223039319
:101A900003230593FEF73CFE4FF4806302A9094837
:101AA000029303940494FEF733FE25202246214638
:101AB000FEF744FC2520FEF775FC06B010BD00BF04
:101AC00000380140000801407047FEE7FEE7FEE7EE
:101AD000FEE7704770477047FEF7FABB08B5074846
:101AE000FFF760FB064B00205968C9B2FFF70AFCFC
:101AF000044A13680133136008BD00BF1C060020B0
:101B000000380140F804002008B50A4B0246196865
:101B100009B9094919606946186802448A4206D918
:101B200000F056FA0C2303604FF0FF3008BD1A6036
:101B300008BD00BFA800002040070020104B1A6815
:101B400042F001021A6059680E4A0A405A601A6847
:101B500022F0847222F480321A601A6822F4802201
:101B60001A605A6822F4FE025A604FF41F029A600B
:101B70000022DA624FF00062034B9A60704700BFA8
:101B8000001002400000FFF800ED00E008B50A4632
:101B90004FF47A7301460448FFF728FA002814BF6F
:101BA000FF20002008BD00BF1C06002008B501462C
:101BB00000239AB2885C01330028FAD14FF47A737B
:101BC0000348FFF7B9F9002814BFFF20002008BD23
:101BD0001C06002007B58DF807000B48FFF78AFBAD
:101BE000A02802D10848FFF760FA4FF47A73012267
:101BF0000DF107010448FFF79FF9002814BFFF20EB
:101C0000002003B05DF804FB1C0600202DE9F04F16
:101C10000128ADF2144D28D002280BBF4FF4806686
:101C200000260024FF24022102A8FFF7AFFF31465F
:101C3000054604A8FFF7AAFF0221054303A8FFF702
:101C4000A5FFEDB228433346002541F22107C0B27B
:101C50000DF10F0163B9B708DFF80891DFF80881CB
:101C6000D0B144F00404E4B238E080260024DAE77E
:101C700011F8012F013B85EA022508229BB215F4D9
:101C8000004F4FEA4505ADB202F1FF3218BF7D406B
:101C900012F0FF02F3D1DDE7002C3ED12B4B9DF873
:101CA0000CB01A789DF80DA042B929492948019332
:101CB000FFF7EDFB98BB0122019B1A709DF808000D
:101CC0009DF8092098F800100244884218BF0224A9
:101CD000FF2A4AEA0B2315D1AB421BD198F800200A
:101CE000BBB2914409F8013C3CB91B4D04AA184908
:101CF0002868FFF7E8FBA0B1082420460DF2144D38
:101D0000BDE8F08FAB4204D1894409F8017C02247C
:101D1000F3E7022444F00104A5E7FF24DEE70824EA
:101D2000DCE72B684FF400711E442E6098F80030F9
:101D30000A4D01332A780A4888F80030FEF7CAFDB8
:101D40002B7883F001032B70D7E700BFB000002091
:101D5000EF3F010800800008B4000020AC00002024
:101D6000000C0140280700201C00002008B5037863
:101D70000133DBB2022B037007D91820FFF72AFFCB
:101D80001820FFF727FFFF2008BD1520FFF722FFCF
:101D9000002008BD2DE9F0433149ADF2044D314832
:101DA000FFF775FB002851D12D4B2E4A2E492F48A5
:101DB00000F040F92D48FFF7CFFA2D4C294D2D4F5B
:101DC000DFF89C80DFF8D0903B689C420DD9254A13
:101DD0002949264800F02EF92448FFF7BDFAFFF7FD
:101DE000B1FB0DF2044DBDE8F0834FF480726946FB
:101DF0002046FFF793FB18B12048FFF79FFAE3E76F
:101E00004FF480736A4641462846FFF75CFB08B1F1
:101E10001B48F2E74846FFF791FA1A4E2B46224636
:101E20001949124800F006F91048FFF795FA327880
:101E30004FF400711548FEF74DFD337805F58065C8
:101E400083F0010304F580643370BDE7104B054A4D
:101E50001049064800F0EEF80448FFF77DFAB6E7AF
:101E6000EFFF010800400108A72A0008C40600206F
:101E700000800008B4000020622B0008D32A00086C
:101E8000E12A0008AC000020012B0008000C0140F2
:101E9000FFFF0108352B0008F02A00080023F7B5E2
:101EA0000122314C8DF805308DF8063023702F4B10
:101EB0002F4D1A702F4A304B304F1A609DF8053065
:101EC0003BB98DF807302B881D2B04D92C48FFF720
:101ED0006DFE03B0F0BD01210DF10700FFF756FEC6
:101EE000064638B1237883B94320FFF773FE2B8869
:101EF00001332B809DF80700042828D00ED8431EFC
:101F0000012B11D9002ED9D11AE0012BF2D10DF1FC
:101F10000600FFF72BFF8DF80500EBE71828F1D13D
:101F2000FF238DF80530C9E7FFF770FE18B90620CA
:101F3000FFF750FEC2E7082802D103238DF80630D0
:101F40000DF10600FFF712FF8DF80500B6E7062039
:101F5000FFF740FE6420FEF7CDF93846FFF726FE76
:101F6000FFF718FFAAE700BFB00000201C00002008
:101F7000AE00002000800008B4000020B72B00084D
:101F8000922B0008002103E00B4B5B5843500431B7
:101F90000A480B4B42189A42F6D30A4A02E0002341
:101FA00042F8043B084B9A42F9D3FFF7C7FD00F013
:101FB00015F8FFF723FB7047082C000800000020ED
:101FC000840000208800002040070020FEE7000079
:101FD000014B1868704700BF2000002070B5002535
:101FE0000C4E0D4CA41BA410A54209D100F070FCAE
:101FF00000250A4E0A4CA41BA410A54205D170BDB1
:1020000056F8253098470135EEE756F825309847C1
:102010000135F2E7002C0008002C0008002C000815
:10202000042C000803460244934200D1704703F891
:10203000011BF9E70EB44FF4027100B59CB0ADF886
:1020400014106FF00041049107914FF6FF711DAB22
:1020500002900690084853F8042BADF8161000685B
:1020600002A9019300F088F80022029B1A701CB0AC
:102070005DF804EB03B0704720000020034611F820
:10208000012B03F8012B002AF9D17047F0B5037832
:1020900033B1034618465E1C1B7833B91846F0BDB1
:1020A0000B78002B18BF0020F0BD4D1E441E15F804
:1020B000012F002AF3D014F8017F33469742F6D05F
:1020C000E8E72DE9F0478E6882469E420C4691462D
:1020D000984635D88A8912F4906F31D0022325684A
:1020E00009696F1A656905EB450595FBF3F508F17C
:1020F00001033B449D4238BF1D46530531D5294657
:1021000000F046FB064650B90C23CAF80030A389FC
:102110004FF0FF3043F04003A381BDE8F0873A461B
:10212000216900F0C3FAA38923F4906343F080038C
:10213000A38126613E44266046466561ED1BA5608D
:10214000464528BF464649463246206800F0B9FA5F
:10215000A36800209B1BA36023681E442660BDE883
:10216000F0872A4600F072FB06460028E1D121697B
:10217000504600F0C1FAC7E72DE9F04F9DB0039338
:102180008B8980461C060D4616460FD50B696BB928
:10219000402100F0FDFA2860286128B90C23C8F816
:1021A00000304FF0FF30C4E040236B6100230993FF
:1021B00020238DF8293030234FF0010B8DF82A3081
:1021C00037463C4614F8013B002B3CD1B7EB060ADE
:1021D0000BD05346324629464046FFF772FF013086
:1021E00000F0A280099B534409933B78002B00F038
:1021F0009B8000234FF0FF320493079305920693D0
:102200008DF853301A9305222178504800F040FA97
:10221000671C049BD8B9D90644BF20228DF85320EF
:102220001A0744BF2B228DF8532022782A2A16D071
:1022300000210A20079A27463B780134303B092BBE
:1022400050D9C9B111E0252BC0D02746B9E73F4A84
:102250003C46801A0BFA00F018430490D3E7039A27
:10226000111D12680391002A01DB079204E052421B
:1022700043F00203079204933B782E2B0DD17B7819
:10228000791C2A2B32D1039B02371A1D1B6803923B
:10229000002BB8BF4FF0FF3305932D4C0322397844
:1022A000204600F0F5F938B14023001B03FA00F096
:1022B000049B0137034304933978062225487E1C8A
:1022C0008DF8281000F0E4F9002835D0224BFBB936
:1022D000039B073323F0070308330393099B4B4405
:1022E00009936DE700FB02320121A4E700230A24D1
:1022F000184605930F463A780131303A092A03D936
:10230000002BCAD00590C8E704FB00200123F1E7A9
:1023100003AB00932A46114B04A94046AFF300805B
:10232000B0F1FF3F8146D9D1AB895B063FF539AFAC
:1023300009981DB0BDE8F08F03AB00932A46074B08
:1023400004A9404600F084F8EAE700BFCD2B00085E
:10235000D32B0008D72B000800000000C320000882
:102360002DE9F04791461F468A680B69064693425D
:10237000B8BF1346C9F8003091F843200C46DDF889
:10238000208012B10133C9F800302368990642BF9A
:10239000D9F800300233C9F80030256815F0060579
:1023A00007D104F1190AE368D9F800209B1A9D426D
:1023B0002ADB94F843302268003318BF01239206C9
:1023C0002FD404F1430239463046C047013022D0B1
:1023D0002368E56803F00603042B18BF0025D9F82D
:1023E00000204FF0000908BFAD1AA368226908BF9A
:1023F00025EAE5759342C4BF9B1AED181A344D4582
:102400001BD10020BDE8F0870123524639463046F3
:10241000C047013003D14FF0FF30BDE8F0870135F0
:10242000C1E73020E11881F843005A1C94F84510A8
:102430002244023382F84310C3E70123224639467F
:102440003046C0470130E6D009F10109D7E7000066
:102450002DE9F04317460A7E85B06E2A9846064657
:102460000C460C9B01F1430E00F0BC801AD8632A85
:102470002ED00AD8002A00F0C880582A00F08A809E
:1024800004F1420584F842202AE0642A01D0692A36
:10249000F6D121681A6811F0800F23D0111D196040
:1024A000136827E0732A00F0B48008D86F2A2AD076
:1024B000702AE5D10A6842F020020A6003E0752A1A
:1024C00021D0782ADCD178226F4984F8452064E055
:1024D0001A6801F14205111D1960136884F8423031
:1024E0000123A3E011F0400F02F104011960D7D0DD
:1024F000B2F90030002B03DA2D225B4284F843202E
:1025000062490A2217E02068196810F0800F03D092
:10251000081D18600B6806E010F0400F01F1040080
:102520001860F7D00B886F2A14BF0A220822574977
:10253000002084F843006568002DA560C0F29C80EF
:10254000206820F004002060002B3FD1002D40F0D7
:1025500095807546082A0BD12368DA0708D52369C8
:1025600062689A42DEBF302305F8013C05F1FF3571
:10257000AEEB05032361CDF800803B4603AA21465C
:102580003046FFF7EDFE013055D14FF0FF3005B07A
:10259000BDE8F08381F845203C492268186812F0B4
:1025A000800F00F104051D6001D0036802E05506AC
:1025B000FBD50388D00744BF42F0200222601BB93C
:1025C000226822F0200222601022B1E77546B3FB98
:1025D000F2F002FB1033CB5C05F8013D0346002806
:1025E000F5D1B7E708681A6810F0800F496904D080
:1025F000101D18601368196007E010F0400F02F119
:10260000040018601368F6D0198000237546236112
:10261000B1E71A68111D1960156800216268284623
:1026200000F036F808B1401B606063682361002346
:1026300084F843309FE723692A4639463046C0472D
:102640000130A2D023689B0707D5002504F11909A2
:10265000E368039A9B1A9D4205DBE068039B98425E
:10266000B8BF184693E701234A4639463046C0476B
:1026700001308AD00135EBE7002BA7D10B7804F1AC
:10268000420584F8423065E7EF2B0008DE2B000896
:1026900010B5C9B202449042034601D1002010BDDA
:1026A0001C7801308C42F6D1184610BD10B5431E7F
:1026B0000A44914200D110BD11F8014B03F8014FBB
:1026C000F7E7884210B501EB020303D8421E994296
:1026D0000CD110BD9842F9D28118D21AD34200D140
:1026E00010BD13F8014D01F8014DF7E711F8014B4A
:1026F00002F8014FEBE7000038B50546002943D04A
:1027000051F8043C0C1F002BB8BFE41800F0D4F8BB
:102710001E4A1368104633B9636014602846BDE84A
:10272000384000F0CAB8A3420BD92168621893421E
:1027300001BF1A685B685218226063600460EDE7AD
:1027400013465A680AB1A242FAD919685818A04229
:102750000BD120680144581882421960DED11068FC
:102760005268014419605A60D8E702D90C232B60E3
:10277000D4E7206821188A4201BF116852680918FD
:10278000216062605C60C9E738BD00BFB80000200E
:1027900070B5CD1C25F0030508350C2D38BF0C2570
:1027A000002D064601DBA94203D90C23336000202B
:1027B00070BD00F081F8234A1468214691B9224C7B
:1027C00023681BB9304600F067F820602946304680
:1027D00000F062F8431C26D10C233046336000F031
:1027E0006CF8E4E70B685B1B1AD40B2B0FD90B605A
:1027F000CC18CD50304600F060F804F10B00231DDA
:1028000020F00700C31A1BD05A42E25070BD8C4220
:102810000BBF63684B681360636018BF0C46E9E741
:102820000C464968CAE7C41C24F00304A04205D042
:10283000211A304600F030F80130CDD02560D9E7BC
:1028400070BD00BFB8000020BC000020F8B50746EE
:1028500014460E4621B91146BDE8F840FFF798BF6F
:1028600022B9FFF749FF25462846F8BD00F026F8B3
:1028700084420FD921463846FFF78AFF05460028D3
:10288000F2D031462246FFF711FF31463846FFF7B6
:1028900033FFE9E73546E7E738B50023054C054641
:1028A00008462360FFF730F9431C02D1236803B1C7
:1028B0002B6038BD3C0700207047704751F8040C6E
:1028C0000028A0F10400BCBF0B58C01870470000DE
:1028D000F8B500BFF8BC08BC9E467047F8B500BF0D
:0828E000F8BC08BC9E467047DD
:1028E80002030405060708090A0B0C0D0E0F101049
:1028F8000102030405060708090A0B0C0D0E0F1048
:102908004230303300486F6E657920546F617374BC
:10291800203A20626F6F746C6F616465722056652F
:102928007273696F6E202573200A003D3D3D3D207E
:10293800506C6561736520636F6E6669726D207790
:10294800697468696E2035207365636F6E64203D15
:102958003D3D3D002D3E204E6577206669726D77BE
:10296800617265203A205B595D206F72205B4E5D75
:10297800002D3E205B25645D5258313A2573002CAA
:102988000059007900596573004E006E004E6F00C3
:102998004A756D70696E6720746F20757365722053
:1029A8006170706C69636174696F6E2E2E2E0A0DEA
:1029B800002446575550004E6577206669726D773A
:1029C8006172652075706461746521002A0024466F
:1029D8005755502C41434B2C310025732A25303252
:1029E800582A2300436F6D6D616E64206E6F7420EA
:1029F800666F756E64210024465755502C424F4F20
:102A0800542C256400506C656173652073656E6491
:102A18002061206E65772062696E6172792066692F
:102A28006C65207769746820586D6F64656D2070D7
:102A3800726F746F636F6C20746F2075706461744B
:102A48006520746865206669726D776172652E0A03
:102A58000D000A0D20586D6F64656D205472616E0B
:102A680073666572204661696C65642E2E2E204A55
:102A7800756D7020746F206F6C642075736572209B
:102A88006170702E0A0D00000000000000000001B7
:102A98000203040607080900000000010203044FAE
:102AA8004B2E2E2E2E206572617365206170703258
:102AB8002066726F6D205B3078253038585D207441
:102AC8006F205B3078253038585D0052656164208E
:102AD8006572726F722E2E2E0057726974652065AA
:102AE80072726F722E2E2E005772697465204F4BCA
:102AF8002E2E2E2E2E2E2E2E0061707020315F6607
:102B08006C61736820616464723A203078253038CB
:102B180058207C2061707020325F666C6173682079
:102B2800616464723A2030782530385800657272D2
:102B38002E2E2E2E206572617365206170703220F2
:102B480066726F6D205B3078253038585D20746F61
:102B5800205B3078253038585D004A756D702074D8
:102B68006F204170706C6C69636174696F6E205B73
:102B780073746172742061646472203A203078251D
:102B8800303858205D200A0A0A000A0A54696D651F
:102B9800206F757420584D4F44454D2066696C650B
:102BA80073207472616E7366657220210A0A000AC6
:102BB8000D4669726D776172652075706461746520
:102BC80064210A0D00232D302B2000686C4C006511
:102BD8006667454647003031323334353637383941
:102BE8004142434445460030313233343536373874
:082BF800396162636465660047
:042C0000F5010008D2
:042C0400D1010008F2
:102C0800010000001000000001000000881300000F
:102C1800E8030000F401000000366E010100000026
:102C28002400002000000000000000000000000058
:102C3800000000000000000000000000000000008C
:102C4800000000000000000000000000000000007C
:102C5800000000000000000000000000000000006C
:102C6800000000000000000000000000000000005C
:102C7800000000000000000000000000000000004C
:042C88000000000048
:0400000508001F854B
:00000001FF
